:1000000000030020D10000000201000004010000F4
:1000100000000000000000000000000000000000E0
:1000200000000000000000000000000006010000C9
:100030000000000000000000080100000A010000AC
:1000400000000000000000000000000000000000B0
:10005000000000000C0100000C0100000C01000079
:100060000C010000000000000C0100000000000076
:100070009102000000000000000000000C010000E0
:100080000C0100000C010000000000000C01000049
:100090000C0100000C010000650100000C010000D3
:1000A0000C0100000C010000000000000C01000029
:1000B0000C0100000C010000000000000000000026
:1000C000FFFFFFFFFFFFFFFFFFFFFFFFFFFFFEFF41
:1000D0000F4810490180104901801048002101702B
:1000E0000F48012101700F480121018000200021EB
:1000F0000022002300240025002600270A4880470C
:10010000FEE7FEE7FEE7FEE7FEE7FEE7FEE70000AC
:1001100002200540C5200000D9280000002005402D
:1001200001200540042005402103000002220A4965
:10013000CB681343CB600021084B1960FC330131BD
:100140005860DA601961DA680A43DA608022044B89
:10015000D2031A607047C04600800440007003401C
:1001600000E100E00122034B1A61034A13680133E6
:1001700013607047FC70034000FFFF1F014B1868BD
:100180007047C04600FFFF1F044B10B51C684000BD
:100190001A6801199142FBD810BDC04600FFFF1F2D
:1001A00010B50D4B041C19785A78914203D19A78F6
:1001B000D0B201280ED001229A701A78D91CD2B27E
:1001C0008C541A7800200132D2B21A701A78202A80
:1001D00000D1187010BDC04604FFFF1F014B987876
:1001E000C0B2704704FFFF1F0C4B9A78002AFBD067
:1001F0005A78D91CD2B2885C5A78C0B20132D2B2D5
:100200005A705A78202A01D100225A7059781A78E7
:10021000914201D100229A707047C04604FFFF1F2F
:10022000034BD8711A7952B2002AFBDA7047C046E4
:1002300000A0064010B5041C2078002803D0FFF76A
:10024000EFFF0134F8E710BD002280210C4B490379
:100250001A709A705A700B4AD3680B43D36001220C
:100260000821094B1A7037325A70143ADA70DA786A
:100270000A43DA708022054B52011A607047C0466B
:1002800004FFFF1F0080044000A0064000E100E0E2
:1002900008B5044B1A79920603D5D879C0B2FFF796
:1002A0007FFF08BD00A006402021074AD3680B430A
:1002B000D360064B064A9A6028225A61054A9A6121
:1002C0000B221A607047C046008004400080034043
:1002D000B80B00008C0A0000014B98617047C046C3
:1002E000008003408021064B89029A690A439A6183
:1002F0005A690A435A615A680A435A607047C046AD
:1003000000F00F4010B51C1C02AB1B88401A1B1BD1
:100310005843511A00F048F8201880B210BDC0466A
:1003200008B50D4B0D4900228B4201D204C3F9E7F9
:100330000B4B0C485A7004321A70FFF7F7FE00F0AE
:1003400013F8FFF7B1FFFFF77FFF62B6FFF7CAFFB1
:1003500000F01CF908BDC04600FFFF1F27FFFF1F6C
:1003600000400640C05D00008021074A8905D3682F
:100370000B430821D360054B9A690A439A616122B5
:100380009A605A685A6070470080044000B0034089
:100390000822044B1A601A681206FCD5014B186932
:1003A000C0B2704700B0034003460B437FD4002225
:1003B00043088B4274D303098B425FD3030A8B42F9
:1003C00044D3030B8B4228D3030C8B420DD3FF2263
:1003D000090212BA030C8B4202D31212090265D031
:1003E000030B8B4219D300E0090AC30B8B4201D3E4
:1003F000CB03C01A5241830B8B4201D38B03C01A2B
:100400005241430B8B4201D34B03C01A5241030BA1
:100410008B4201D30B03C01A5241C30A8B4201D352
:10042000CB02C01A5241830A8B4201D38B02C01AFD
:100430005241430A8B4201D34B02C01A5241030A74
:100440008B4201D30B02C01A5241CDD2C3098B4259
:1004500001D3CB01C01A524183098B4201D38B01D6
:10046000C01A524143098B4201D34B01C01A524179
:1004700003098B4201D30B01C01A5241C3088B42BE
:1004800001D3CB00C01A524183088B4201D38B00A9
:10049000C01A524143088B4201D34B00C01A52414B
:1004A000411A00D201465241104670475DE0CA0F22
:1004B00000D04942031000D34042534000229C46E2
:1004C00003098B422DD3030A8B4212D3FC228901EC
:1004D00012BA030A8B420CD3890192118B4208D3C2
:1004E000890192118B4204D389013AD0921100E024
:1004F0008909C3098B4201D3CB01C01A5241830938
:100500008B4201D38B01C01A524143098B4201D364
:100510004B01C01A524103098B4201D30B01C01A8F
:100520005241C3088B4201D3CB00C01A5241830809
:100530008B4201D38B00C01A5241D9D243088B425F
:1005400001D34B00C01A5241411A00D20146634602
:1005500052415B10104601D34042002B00D5494266
:10056000704763465B1000D3404201B5002000F0A5
:100570000BF802BD0029F8D003B5FFF715FF0EBC3C
:100580004243891A1847C0467047C04610B51548FF
:10059000FFF750FEFFF7FCFEC3B2802B14D9FF21FA
:1005A0000840041C10486043FFF7FEFE643080B230
:1005B000FFF792FE201CFFF7E7FD80210B4A89021E
:1005C000D3680B43D360E2E7FFF70EFE80B2412809
:1005D00002D1B920000102E04E28D8D14D38FFF7F2
:1005E0007BFED4E7F00500002C0B000000F00F406C
:0505F000594F4C4F00C3
:04000003000000D029
:00000001FF
