:1000000000030020D10000000201000004010000F4
:1000100000000000000000000000000000000000E0
:1000200000000000000000000000000006010000C9
:100030000000000000000000080100000A010000AC
:1000400000000000000000000000000000000000B0
:10005000000000000C0100000C0100000C01000079
:100060000C010000000000000C0100000000000076
:100070000C01000000000000000000000C01000066
:100080000C0100000C010000000000000C01000049
:100090000C0100000C010000690100000C010000CF
:1000A0000C0100000C010000000000000C01000029
:1000B0000C0100000C010000000000000000000026
:1000C000FFFFFFFFFFFFFFFFFFFFFFFFFFFFFEFF41
:1000D0000F4810490180104901801048002101702B
:1000E0000F48012101700F480121018000200021EB
:1000F0000022002300240025002600270A4880470C
:10010000FEE7FEE7FEE7FEE7FEE7FEE7FEE70000AC
:1001100002200540C5200000D9280000002005402D
:1001200001200540042005409D01000002220A49EB
:10013000CB681343CB600021084B19600849FC339E
:1001400059600121DA601961DA680A43DA608022B5
:10015000044BD2031A6070470080044000700340D3
:100160000077010000E100E001228021054B8902B7
:100170001A61054AD3680B43D360044A13680133FC
:1001800013607047FC70034000F00F4000FFFF1F3A
:10019000014B18687047C04600FFFF1F08B5084BA9
:1001A000084900228B4201D204C3F9E7064B5A707A
:1001B00004321A70FFF7BAFF00F008F808BDC04615
:1001C00000FFFF1F04FFFF1F00400640802108B50D
:1001D000064B89029A690A439A615A690A435A612D
:1001E0005A680A435A60FFF7D3FFFCE700F00F405C
:04000003000000D029
:00000001FF
