:1000000000030020D10000000201000004010000F4
:1000100000000000000000000000000000000000E0
:1000200000000000000000000000000006010000C9
:100030000000000000000000080100000A010000AC
:1000400000000000000000000000000000000000B0
:10005000000000000C0100000C0100000C01000079
:100060000C010000000000000C0100000000000076
:100070000C01000000000000000000000C01000066
:100080000C0100000C010000000000000C01000049
:100090000C0100000C010000650100000C010000D3
:1000A0000C0100000C010000000000000C01000029
:1000B0000C0100000C010000000000000000000026
:1000C000FFFFFFFFFFFFFFFFFFFFFFFFFFFFFEFF41
:1000D0000F4810490180104901801048002101702B
:1000E0000F48012101700F480121018000200021EB
:1000F0000022002300240025002600270A4880470C
:10010000FEE7FEE7FEE7FEE7FEE7FEE7FEE70000AC
:1001100002200540C5200000D9280000002005402D
:100120000120054004200540A101000002220A49E7
:10013000CB681343CB600021084B1960FC330131BD
:100140005860DA601961DA680A43DA608022044B89
:10015000D2031A607047C04600800440007003401C
:1001600000E100E00122034B1A61034A13680133E6
:1001700013607047FC70034000FFFF1F014B1868BD
:100180007047C04600FFFF1F044B10B51C684000BD
:100190001A6801199142FBD810BDC04600FFFF1F2D
:1001A00008B5084B084900228B4201D204C3F9E785
:1001B000064B07485A7004321A70FFF7B7FF00F079
:1001C00009F808BD00FFFF1F04FFFF1F00400640A5
:1001D000C05D000010B562B680210B4B89021C1C6B
:1001E0009A690A439A615A690A435A615A680A43EA
:1001F0005A60FA208000FFF7C7FF8022E36892026E
:0C0200001343E360F5E7C04600F00F4038
:04000003000000D029
:00000001FF
