:1000000000030020D10000000201000004010000F4
:1000100000000000000000000000000000000000E0
:1000200000000000000000000000000006010000C9
:100030000000000000000000080100000A010000AC
:1000400000000000000000000000000000000000B0
:10005000000000000C0100000C0100000C01000079
:100060000C010000000000000C0100000000000076
:100070000C01000000000000000000000C01000066
:100080000C0100000C010000000000000C01000049
:100090000C0100000C010000650100000C010000D3
:1000A0000C0100000C010000000000000C01000029
:1000B0000C0100000C010000000000000000000026
:1000C000FFFFFFFFFFFFFFFFFFFFFFFFFFFFFEFF41
:1000D0000F4810490180104901801048002101702B
:1000E0000F48012101700F480121018000200021EB
:1000F0000022002300240025002600270A4880470C
:10010000FEE7FEE7FEE7FEE7FEE7FEE7FEE70000AC
:1001100002200540C5200000D9280000002005402D
:1001200001200540042005401D02000002220A496A
:10013000CB681343CB600021084B1960FC330131BD
:100140005860DA601961DA680A43DA608022044B89
:10015000D2031A607047C04600800440007003401C
:1001600000E100E00122034B1A61034A13680133E6
:1001700013607047FC70034000FFFF1F014B1868BD
:100180007047C04600FFFF1F044B10B51C684000BD
:100190001A6801199142FBD810BDC04600FFFF1F2D
:1001A00020218020134B10B5DA6880000A43DA6002
:1001B0009A681C3902439A6080220F4B52019A6060
:1001C00000225A605A6DC0240A435A651A1C08322C
:1001D000D16F2143D1672F221A605969073A114321
:1001E0008022120159619A6198331A6802431A6099
:1001F00010BDC0460080044000800340054B064906
:100200009A690A439A615A690A435A615A680A43C9
:100210005A60704700F00F400200020008B50C4B16
:100220000C4900228B4201D204C3F9E70A4B0B4868
:100230005A7004321A70FFF779FF00F011F8FFF7D7
:10024000AFFF62B6FFF7DAFF00F02AF808BDC0463C
:1002500000FFFF1F04FFFF1F00400640C05D0000BD
:100260008021074A8905D3680B430821D360054BD9
:100270009A690A439A6161229A605A685A60704783
:100280000080044000B003400822044B1A601A6842
:100290001206FCD5014B1869C0B2704700B003408C
:1002A000022210B5064CE3681343E360FFF7ECFF4E
:1002B000C0B2FFF769FF8022E3689202F4E7C0460C
:0402C00000F00F40FB
:04000003000000D029
:00000001FF
